:020000040800F2
:10000000200F0020CD0100088F400008D5350008E2
:100010008D400008C50400080151000800000000E0
:10002000000000000000000000000000C1430008C4
:100030009D06000800000000974000087546000873
:10004000E7010008E7010008E7010008E7010008F0
:10005000E7010008E7010008E7010008E7010008E0
:10006000E7010008E7010008E7010008F1040008C3
:10007000E7010008E7010008E7010008E7010008C0
:10008000E7010008E7010008E7010008E7010008B0
:10009000E7010008E7010008E7010008E7010008A0
:1000A000E7010008E7010008E7010008E701000890
:1000B000E7010008E7010008E7010008E701000880
:1000C000E7010008E7010008E7010008E701000870
:1000D000E7010008E7010008F5500008E701000803
:1000E000E7010008E7010008E7010008E701000850
:1000F000E7010008E7010008E7010008E701000840
:10010000E7010008E7010008E7010008E70100082F
:10011000614E0008E7010008FD460008E7010008FD
:10012000E7010008E7010008E7010008E70100080F
:1001300000F002F800F03AF80AA090E8000C8244BF
:100140008344AAF10107DA4501D100F02FF8AFF29C
:10015000090EBAE80F0013F0010F18BFFB1A43F0A5
:1001600001031847F463000014640000103A24BF30
:1001700078C878C1FAD8520724BF30C830C144BF0C
:1001800004680C607047000000230024002500264E
:10019000103A28BF78C1FBD8520728BF30C148BFEA
:1001A0000B6070471FB51FBD10B510BD00F058F8AB
:1001B0001146FFF7F7FF04F0C9FF00F076F803B42B
:1001C000FFF7F2FF03BC00F07DF80000094880470C
:1001D00009480047FEE7FEE7FEE7FEE7FEE7FEE729
:1001E000FEE7FEE7FEE7FEE704480549054A064B41
:1001F00070470000F946000831010008200900207E
:10020000200F0020200B0020200B00204FF00002C8
:1002100000B5134694469646203922BFA0E80C50FC
:10022000A0E80C50B1F12001BFF4F7AF090728BFD7
:10023000A0E80C5048BF0CC05DF804EB890028BF53
:1002400040F8042B08BF704748BF20F8022B11F07C
:10025000804F18BF00F8012B7047704770477047F8
:10026000754600F02BF8AE4605006946534620F06F
:100270000700854618B020B5FFF7B6FFBDE820405F
:100280004FF000064FF000074FF000084FF0000B52
:1002900021F00701AC46ACE8C009ACE8C009ACE805
:1002A000C009ACE8C0098D46704710B50446AFF3ED
:1002B00000802046BDE81040FFF781BF004870472E
:1002C000C008002001491820ABBEFEE7260002004E
:1002D0007047000070B5044600688168C943C907CB
:1002E00017D1816821F00101816001F0EBFC054626
:1002F0000AE000BF01F0E6FC401B022804D9206898
:100300008068C043C00706D020688068C043C0072B
:10031000F0D0002070BDA06A40F01000A062E06A3A
:1003200040F00100E062012070BD10B50146406A56
:10033000826A12F0500F05D0006A026BBDE81040CF
:1003400008461047816A41F400718162016889683A
:10035000C1F3424107290CD1017B51B9816A21F4D3
:1003600080718162816AC90403D4816A41F001010C
:10037000816200F0AFFF10BD10B5406A816A41F0A4
:1003800040018162C16A41F00401C16200F0CFFF07
:1003900010BD10B5406A00F0C9FF10BDF8B50026C9
:1003A0000446009600688168C943C9072DD081685A
:1003B00041F001018160164816490068B0FBF1F078
:1003C00000E0401E00900028FBD101F07BFC0546B8
:1003D00016E000BF01F076FC401B022810D920680F
:1003E0008068C043C0070BD0A06A40F01000A06234
:1003F000E06A40F00100E06284F824600120F8BD6A
:1004000020688068C043C007E4D10020F8BD000028
:100410003C00002040420F0004490348097850F88E
:100420002100006870470000D40000200600002072
:1004300010B540210C4804F039FF10F0FF0F12D026
:100440000948417A00290ED0084C80790229207091
:1004500001D180302070FFF7DFFF21780246BDE830
:1004600010400120104710BD140300201800002088
:1004700070B5054616460C46EE2003F0A3FFB120EA
:1004800003F0A0FF232003F09DFF280A03F09AFF4A
:10049000E8B203F097FF200A03F094FFE0B203F004
:1004A00091FF304603F08EFFFF2003F08BFFFC200E
:1004B00003F088FFFF2003F085FFBDE87040FF20B8
:1004C00003F080BFFEE70000074B10B51878002846
:1004D00008D0064A002152F82040217142F820102D
:1004E000401E187010BD000006000020D40000203F
:1004F000014801F047B90000DC05002030B590F854
:1005000040500124AC40C56B6C6004686360436874
:10051000102B036803D099600068C26030BD9A60F8
:100520000068C16030BD00002DE9F0414D4EDFF89C
:1005300028814A4F4A4CB08805F000FE05462061EC
:10054000707805F0FBFD4646414605F03FFE464902
:10055000A06605F0F9FC294605F004FE09D2B96849
:10056000386905F0FFFD04D23969A06E05F078FC0A
:1005700008E03146386905F029FE20613146B86847
:1005800005F024FEA0663948017804EB8102491C7D
:100590005669142900D300210170C8B204EB80070A
:1005A000606E796905F0DEFE60662169A06E05F077
:1005B000D9FE01467861606E05F052FC60667F6985
:1005C0000546384605F020FC294A2A4B05F0FEF97D
:1005D00004F06EFF8046284605F016FC264A274B9D
:1005E00005F0F4F904F064FF05463146384605F09D
:1005F000B9FE012105F05DFF0646214921488D42E3
:1006000001DD0D4602E0854200D9054629464046F7
:1006100005F026FC314605F023FC1B49E0608842CA
:1006200002D81A49884200DBE160D4E9020105F0F2
:1006300017FC1749A060884202DC1649884200DA9C
:10064000A160A06805F042FD134980B2608009688E
:100650004863BDE8F081000000002041DC03002079
:1006600068040020F8030020000040404200002001
:10067000B81E85EB51B89E3FFA7E6ABC7493683F02
:1006800000004842000048C20000A0C10000A04194
:1006900000C079440000C8431007002070474FF4A1
:1006A0007A7206E01146491E0904090CFBD1401E6E
:1006B00080B20028F6D1704770B5044642F210753A
:1006C00009E02846401E0004000CFBD1034801F05D
:1006D000E0FD641EA4B2002CF3D170BD74060020AE
:1006E0002DE9F84F824C0346002202270126DFF84D
:1006F000F091DFF8F0817C4DDFF8F0A1A0680D2BC0
:1007000070D00FDC7849DFF8EC91DFF8ECB1497874
:10071000A3F10503082B2DD2DFE803F027415B6529
:100720002C2C2C71142B78D010DC0F2B76D0132BA3
:1007300020D188F800204FF6FF720321012003F03A
:100740007CFE05226A704FF08140AEE04FF07E5192
:10075000872B75D0882B0DD188420BDD05F002FE6A
:10076000A060012302460096A7E098F8000018B1A7
:1007700088F80070BDE8F88F1E29FBD2491CCAB268
:100780006A70002303210120009703F0C5FE6878FA
:100790000F28EFD188F800604FF4784213E088F812
:1007A00000200129E6D9491ECAB26A70002303213C
:1007B0000120009703F0B0FE68780F28EAD00E28D9
:1007C000D8D14FF6FF72BDE8F84F0321012003F0A6
:1007D00034BE5045CEDA05F017FB4A465B4604F0BE
:1007E00099FE09E01BE045498842C3DB05F00CFB9C
:1007F0004A465B4605F01EFA04F05AFEB0E7404850
:1008000000230B2102603F4802603F480260032042
:100810000090012003F080FEACE73BE02AE03B487B
:10082000007828B101280CD0BDE8F84F04F000BED4
:1008300001222021484601F040FA4FF4FA7006E008
:1008400040E001222021484601F037FAC820FFF796
:1008500033FF00222021484601F02FFA0022122106
:100860000120FFF705FE00220E21BDE8F84F012010
:10087000FFF7FEBD01222021484601F01EFAC820E4
:10088000FFF71AFF00222021484601F016FA002245
:100890001121EAE788F800204FF6FF7203210120BA
:1008A00003F0CBFD0D221A486A70A06000230321DB
:1008B0000120009703F030FE0DE00421012003F039
:1008C000E9FD57E75546A842A6DA05F0C9FAA06047
:1008D000A84200DDA56000960123A268EDE70000B4
:1008E000000C01401C000020F803002000007042B2
:1008F000DC0300209A9999999999B93FCDCC4C3E47
:10090000200000200C0000202400002054030020C0
:100910000000A0412DE9F84F954C02460025022722
:1009200001268E4BDFF838A2DFF83882DFF83892E4
:10093000DFF838C2A0680D2A73D00FDC8A49DFF8CF
:1009400034A2DFF834B24978A2F10502082A2ED287
:10095000DFE802F028435E682D2D2D74142A7CD028
:1009600011DC0F2A7AD0132A21D188F800504FF6D3
:10097000FF720321012003F060FD052289F80120A8
:100980004FF08140CFE04FF07E51872A67D0882A10
:100990000DD188420BDD05F0E5FCA0600123024685
:1009A0000096C8E098F8000018B188F80070BDE81B
:1009B000F88F4C461E29FAD2491CCAB26270002335
:1009C00003210120009703F0A7FD60780F28EED1E6
:1009D00088F800604FF4784214E088F800504C46E4
:1009E0000129E4D9491ECAB2627000230321012003
:1009F000009703F091FD60780F28E9D00E28D6D13A
:100A00004FF6FF72BDE8F84F0321012003F015BD3A
:100A10006045CCDA05F0F8F952465B4604F07AFD01
:100A200009E01DE055498842C1DB05F0EDF9524669
:100A30005B4605F0FFF804F03BFDAEE750482A4660
:100A4000002305604F480B2105604F4805600320D7
:100A50000090012003F060FDA9E758E016E06FE088
:100A600000228021184601F028F9DAF80000856399
:100A7000002211210120FFF7FBFC0022122101209E
:100A8000FFF7F6FCBDE8F84FFFF71EBD3F490A78B7
:100A900052B10D7000228021184601F00EF9DAF8EB
:100AA0000000856300220EE010F1FF4F11D20E709E
:100AB00001228021184601F000F9DAF800004FF415
:100AC000FA7181630122BDE8F84F11210120FFF77F
:100AD000CFBC0D7000228021184601F0EEF8DAF844
:100AE00000008563002211210120FFF7C1FC284C82
:100AF00001222021204601F0E0F8C820FFF7DCFDAC
:100B00002046BDE8F84F0022202101F0D6B888F831
:100B100000504FF6FF720321012003F08EFC0D22DE
:100B20001C4889F80120A0600023032101200097C0
:100B300003F0F2FC0DE00421012003F0ABFC36E7EA
:100B40006546A84288DA05F08BF9A060A84200DD6E
:100B5000A56000960123A268EDE7000000100140A7
:100B6000800600201C000020F803002000007042D6
:100B7000DC0300209A9999999999B93FCDCC4C3EC4
:100B8000200000200C000020240000201B0000207A
:100B9000000C01400000A04170B5002000F05EF89C
:100BA000154C164DAA2819D0AA21002000F0DAF819
:100BB0006420FFF774FD05216170102000F0D2F869
:100BC0006420FFF76CFD4FF07E512020A96000F0FB
:100BD0009DF8BDE87040302000F0D6B8102000F03D
:100BE0003DF86070202000F00BF8A860BDE8704070
:100BF000302000F04BB80000F8030020DC03002098
:100C00002DE9FF410024054603AE0A274FF00108F5
:100C10003119CDE90018281982B201230297A121C8
:100C20000C4801F019F9641CE4B2022CF0D39DF8D1
:100C30000C004FF6FF7101EA00209DF80D100844EA
:100C400080B205F07BFA04B00349BDE8F04105F03D
:100C50007BB9000020060020000020411FB50021C4
:100C60008DF80C100A23012203A98DE80E0013460B
:100C70000246A121044801F0EFF810B1002004B0B1
:100C800010BD9DF80C00FAE7200600202DE9F04F7A
:100C9000A3B0824600240DF10C0B4FF00A084FF070
:100CA00001090BEB4405CDE900590AEB44075E4608
:100CB000BAB20123A1211348CDF8088001F0CCF885
:100CC00016F81400104E6A1C7F1C26F81400CDE99B
:100CD0000029CDF80880BAB20123A121094801F00A
:100CE000BBF816F814104FF6FF7000EA012069787F
:100CF000084426F81400641CE4B23D2CD1D323B080
:100D0000BDE8F08F20060020D40400202DE9FF412B
:100D10000A4605461149104605F058FA05F0D6F97D
:100D2000010A8DF80C1000248DF80D0003AE0A277F
:100D30004FF001083119CDE90018281982B20123BA
:100D40000297A021064801F0AFF96420FFF7A7FC45
:100D5000641CE4B2022CEDD3BDE8FF810000204109
:100D60002006002003B583B00A23012204A98DE8E0
:100D70000E0013460246A021024801F095F905B085
:100D800000BD0000200600202DE9F04F0024A3B094
:100D900083460DF10C084FF00A090127A2462FE007
:100DA00074B31A4830F81400000A08F8140000BFA1
:100DB00008EB44058DE8A0020BEB4406B2B2012318
:100DC000A021134801F070F96420FFF768FCD4B14A
:100DD0000E4810F8140068706D1C8DE8A002761C97
:100DE000B2B20123A0210A4801F05EF96420FFF7A6
:100DF00056FC641CE4B23D2CD2D323B0BDE8F08F86
:100E00008DF80CA0D4E78DF80DA0E5E7D404002000
:100E10002006002072B6FEE7204810B5828840F216
:100E200056218A4200D281801D4C8088A082A1690F
:100E30000844E18A401AA061C0F30F1040F29721E4
:100E4000E082884209D205F079F9164905F08AFA5C
:100E50006FF0030105F02DFB0AE040F27E3188427D
:100E600008D205F06BF9104905F07CFA0F4911E042
:100E7000206110BDB0F5C16F06D805F05FF90C49CF
:100E800005F070FA0B4905E005F058F90A4905F03C
:100E900069FA0A4905F058F8EAE70000A0050020C1
:100EA000DC030020008015440080DA43000060422B
:100EB0000000F3430000484200C00E4400003842E6
:100EC00070B511480188C82901D2C82101800F4C92
:100ED00088B2A082A1690844E18A401AA061C0F3E7
:100EE0004F10E0825A21C83890FBF1F0C5B2072DAF
:100EF00000D907252078A84205D02A4610210120D4
:100F0000FFF7B6FA257070BDA0050020540300203D
:100F100012484188142901D21421418088B2104915
:100F200088828A6910448861CA8A904201D9801AED
:100F30008861C0F3CF004FF49672C882904200D20D
:100F40001046A0F58C70C0EB001000EB80004FF451
:100F50008472B0FBF2F0888070470000A00500208A
:100F6000F80300202DE9F05F8148824CDFF808B2D9
:100F7000C088A082A169DFF804A20844E18A40F693
:100F8000C618401AC0F3CF07A061E78240F2FD798E
:100F9000B7F5386F11D3384605F0D0F8784905F029
:100FA000E1F904F031FF4FF066325B4604F066FB76
:100FB00004F07EFA80F000404BE0474510D93846F7
:100FC00005F0BCF86F4905F0CDF904F01DFF6E4A3D
:100FD0006E4B04F053FB04F06BFA01466C4836E0AC
:100FE0004F4510D9384605F0A9F86A4905F0BAF915
:100FF00004F00AFF684A694B04F040FB04F058FA19
:101000000146674823E040F21660874238460FD910
:1010100005F094F8634905F0A5F904F0F5FE624A7D
:10102000624B04F02BFB04F043FA014660480EE0EB
:1010300005F084F85F4905F095F904F0E5FE5E4A95
:101040005E4B04F01BFB04F033FA0146504605F0FA
:1010500089F9206146485A4D0089A882A969084447
:10106000E98A401AC0F3CF06A861EE82B6F5386F60
:1010700011D3304605F062F8414905F073F904F0E8
:10108000C3FE4FF066325B4604F0F8FA04F010FA43
:1010900080F000404BE0464510D9304605F04EF850
:1010A000384905F05FF904F0AFFE374A374B04F0DA
:1010B000E5FA04F0FDF90146354836E04E4510D911
:1010C000304605F03BF8334905F04CF904F09CFE3E
:1010D000314A324B04F0D2FA04F0EAF901463048C2
:1010E00023E040F21660864230460FD905F026F81C
:1010F0002C4905F037F904F087FE2B4A2B4B04F0FE
:10110000BDFA04F0D5F9014629480EE005F016F8BD
:10111000284905F027F904F077FE274A274B04F009
:10112000ADFA04F0C5F90146504605F01BF92861F7
:10113000B81B04F0EBFF23490027234E884214DA42
:101140002249884211D22969206904F089FE791E5A
:1011500005F0AFF91E495045086106DA1D4988427D
:1011600003D201203070BDE8F09F3770FBE700002C
:10117000A00500203004002066E6264000007042F2
:1011800000F0374500601C45CDCCCCCCCC0C3640B3
:101190000000A04100A0FF44B81E85EB51783E40FE
:1011A00000000C4200C0C2445C8FC2F5283C4040A5
:1011B0000000484200209D449A99999999193E400F
:1011C0004C040020000048431F000020000048C3DA
:1011D000140400200000A0C1F8B50024009490F889
:1011E00024202546012A12D0012280F824204A68B2
:1011F0001F23072A0DD20668776B521E02EB82026C
:1012000093409F430B6893401F43776319E002208C
:10121000F8BD06680D2A0AD2376BD21F02EB820294
:1012200093409F430B6893401F43376309E0F76A7D
:101230000D3A02EB820293409F430B6893401F4399
:10124000F7620A68072306680A2A0AD3F7680A3A87
:1012500002EB420293409F438B6893401F43F76029
:1012600008E0376902EB420293409F438B6893404A
:101270001F4337610A68102A01D0112A20D1124B6E
:1012800002689A4217D193681B0219D4936843F4F9
:10129000000393600968102912D10C490C4A0968AF
:1012A000B1FBF2F101EB8101490000E0491E009120
:1012B0000029FBD104E0816A41F020018162012410
:1012C00080F824502046F8BD002401403C00002056
:1012D00040420F0070B586B014216846FEF796FFB5
:1012E000114B00206A4603F15004002101EB8105F7
:1012F00003EB450552F8206035F81050491C354481
:10130000C9B242F820500829F0D3C5F3CF0140F606
:10131000E4456943090B24F81010401CC0B20528AD
:10132000E3D306B070BD0000500500207047704741
:101330002DE9F04104004FF000057FD0A06A00269F
:1013400028B9E66284F82460204600F081F820463F
:10135000FEF7C0FFA16AC90600D420B1A06A40F020
:101360001000A0626AE0A16A21F4885141F00201F4
:10137000A162334923688B42E16904D1B1F5402F62
:1013800001D14FF40021277B4FF4807C41EA4702D2
:1013900061680A43A168614508D0012906D000218F
:1013A00094F814E0BEF1010F02D00AE06146F7E7BD
:1013B000C7B1A76A47F02007A762E76A47F00107AD
:1013C000E7625F6827F469470F435F6023689968A5
:1013D0001C4F394011439960A16861450BD0012928
:1013E00009D00CE0DFF860E0A7690EEB47370F4348
:1013F00047F40061E5E7218A0D05A5F58015216810
:10140000CB6A23F470032B43CB62216889680F4BAE
:101410001940914208D1E662A16A21F0020141F02F
:101420000101A162BDE8F081A06A20F0020040F055
:101430001000A062E06A40F00100E0620120F1E7E4
:10144000003C0140FDF7E1FF00E0FFFFFE0E1FFF43
:1014500070B586B000250646009501950295039566
:101460000068214988423DD12049886940F40070D4
:101470008861886900F400700490886940F0100069
:101480008861886900F010000490886940F00400C9
:1014900088618869032400F0040004903A20CDE9B3
:1014A00000046946124800F007FB1020CDE9000453
:1014B0006946104800F000FB104C0F48C4E90005D5
:1014C0008020C4E90250400020618000606120203B
:1014D000C4E90605204600F079FA08B1FFF79AFC46
:1014E0003462666206B070BD002401400010024004
:1014F000001001400008014008000240DC05002007
:101500002DE9F047894604463B4900683B4F0E1DD4
:101510009046884201D0B84207D1306810F4702F4D
:1015200003D001252846BDE8F08794F8240001285F
:101530000CD0012084F824002046FEF72FFF050080
:101540004FF0000004D084F82400EBE70220EAE723
:10155000A16A40F60162914341F48071A162216861
:10156000B94218D1326812F4702F14D0A16A41F434
:101570008011A1623168490505D5A16A21F40051A5
:1015800041F48051A162A16AC9040AD5E16A21F03F
:101590000601E16206E0A26A22F48012A2624968B2
:1015A000E9E7E06284F82400216A15488862216A2C
:1015B0001448C862216A1448086321686FF0020069
:1015C00008602068816841F4807181602168434629
:1015D0004A464C31206A00F037FA20688168C1F32E
:1015E00042410729816803D041F48011816099E765
:1015F00041F4A001FAE70000002401400028014066
:101600002B030008930300087903000810B590F835
:1016100021100022022905D00421816380F82020B6
:10162000012010BD01680B6823F00E030B600168F8
:101630000B6823F001030B6090F84030C46B01216C
:1016400001FA03F3636080F8211080F8202010462F
:1016500010BD00002DE9F05F90F821100024022950
:1016600003D004218163012485E001680A6822F027
:101670000E020A6001680A6822F001020A603F4E09
:101680003E4FB215DFF8F4C0DFF8F090DFF8ECA0C1
:10169000DFF8E8B0DFF8E4E00168783F13011502F5
:1016A000ACF1640CA9F15009AAF13C0AABF1280B8A
:1016B000AEF1140E4FF48018B14227D9B9420ED0C2
:1016C000614512D049451DD0514518D0594518D013
:1016D000714501D1424615E0294EB14201D10122A6
:1016E00010E0274E1436B14201D110220AE0244EF8
:1016F0002836B14206D0224A3C32914201D11A46E4
:1017000000E02A461E49091F0A602BE0B94213D0A7
:10171000614517D0494522D051451DD059451DD0AE
:10172000714501D142461AE0B14202D14FF08072B8
:1017300015E0134EB14201D1012210E0104E1436D3
:10174000B14201D110220AE00D4E2836B14206D036
:101750000B4A3C32914201D11A4600E02A46074921
:1017600080394A60012180F82110002180F8201082
:10177000416B01B188472046BDE8F09F80000240E0
:10178000080402402DE9F05FC16B0A6801680B682C
:10179000046C4FF0040808FA04F8844D844E854F19
:1017A000DFF814C2DFF81492DFF814A2DFF814B2E5
:1017B000DFF814E218EA020F65D05FEA437862D5D9
:1017C0000A68920603D40A6822F004020A60DFF86D
:1017D000F0814FF48062016808F1140813011402CB
:1017E000414524D9A9420DD0B1420FD0B9421AD0F7
:1017F000614515D0494515D0514501D1120312E07C
:10180000594501D104220EE0714501D140220AE080
:101810006D4D1435A94206D06B4A2832914201D150
:101820001A4600E022466749091F0A6029E0A942DA
:1018300013D0B14215D0B94220D061451BD04945E3
:101840001BD0514502D14FF4800217E0414502D12F
:101850004FF0806212E0594501D104220EE071453B
:1018600001D140220AE0584D1435A94206D0564A0B
:101870002832914201D11A4600E022464B490839EC
:101880004A60C16A71E04FF0020808FA04F818EAE9
:10189000020F70D05FEA83786DD50A68920606D48D
:1018A0000A6822F00A020A60012180F82110DFF89C
:1018B00010814FF40072016808F11408130114023A
:1018C000414524D9A9420DD0B1420FD0B9421AD016
:1018D000614515D0494515D0514501D1120312E09B
:1018E000594501D102220EE0714501D120220AE0C2
:1018F000354D1435A94206D0334A2832914201D1E0
:101900001A4600E022462F49091F0A6029E0A94231
:1019100013D0B14215D0B94220D061451BD0494502
:101920001BD0514502D14FF4001217E0414502D1BE
:101930004FF0007212E0594501D102220EE07145CC
:1019400001D120220AE0204D1435A94206D01E4ABA
:101950002832914201D11A4600E022461349083943
:101960004A60002180F82010816A00291CD0BDE85F
:10197000F05F0847FFE70825A540154214D01A0775
:1019800012D50A6822F00E020A6090F84020C36B5C
:10199000012101FA02F25A60816380F821100021CE
:1019A00080F82010016BE0E7BDE8F09F08000240DE
:1019B0001C00024030000240440002405800024037
:1019C0006C000240080402401C04024030B560B1C3
:1019D0001A4B026814219A4209D2194B1344B3FBE3
:1019E000F1F18900016417490AE0012030BD134B71
:1019F0005B421344B3FBF1F1890001640F490839DC
:101A0000C163022180F82110136843F6F0718B4303
:101A1000F0E901142143D0E902452C432143046934
:101A20002143446921438469214319431160002102
:101A30004163012242770177084630BD0804024025
:101A4000F8FFFDBF0000024070B5044690F820008A
:101A5000002501280CD0012084F8200094F8216092
:101A60000020012E06D084F820000225284670BDF3
:101A7000022070BD022684F82160A06320680668F9
:101A800026F0010606602046FEF738FDE06A0028D1
:101A90002068016802D041F00E0106E021F0040147
:101AA00001602068016841F00A0101602068016856
:101AB00041F001010160D9E72DE9F84FDFF8C89145
:101AC0000024A9F1040B23460F2709F1040AABF106
:101AD000040ED1E00125A54006EA0502AA4276D10E
:101AE000DFF8A8C14E68A6EB0C0866452BD00DDCCC
:101AF000032E34D005DC36B3012E19D0022E2FD19F
:101B00001BE0112E16D0122E2AD119E0B8F5881F2D
:101B100019D006DCB8F5803F15D0B8F5801F1FD16D
:101B200011E0B8F5001F0ED0B8F5041F18D10AE077
:101B3000CB6815E0CB681B1D12E0CB6808330FE0C3
:101B4000CB680C330CE08B682BB1012B4FF00803F2
:101B500003D0456104E0042302E0056100E00023B6
:101B6000FF2A01D8064601E000F104064FEA840589
:101B700001D9A5F12005D6F8008007FA05FC28EA6E
:101B80000C0803FA05F548EA0508C6F800804D6818
:101B9000ED0070D53E4DAE6946F00106AE61AD690F
:101BA00024F0030605F0010500953A4D06EB050CFF
:101BB000DCF80850A607360F07FA06F825EA0805EC
:101BC000DFF8D480404503D14FF0000825E052E013
:101BD000DFF8C880404502D14FF001081DE0DFF872
:101BE000C080404502D14FF0020816E0DFF8B48013
:101BF000404502D14FF003080FE0DFF8AC804045CC
:101C000002D14FF0040808E0DFF8A080404502D17F
:101C10004FF0050801E04FF0060808FA06F848EA18
:101C20000508CCF808804D68D9F80060ED024D46F3
:101C300001D5164300E096432E604D68DAF8006047
:101C4000AD02554601D5164300E096432E604D681F
:101C5000DBF80060AD035D4601D5164300E0964316
:101C60002E604D68DEF80060ED03754601D5164321
:101C700000E096432E60641C0A681646E2407FF43A
:101C800029AFBDE8F88F00000804014000001110E2
:101C9000001002400000014000080140000C01401B
:101CA000001001400014014000180140001C0140D8
:101CB0008068084000D0012070470AB10161704778
:101CC0000904FBE7014880687047000030000020ED
:101CD00070B5040025D094F83D00002520B984F8A3
:101CE0003C50204600F078FA242084F83D0020681B
:101CF000016821F0010101602068016841F40041A0
:101D000001602068016821F40041016000F06CFC72
:101D10004D4A6168914201D84C4900E04C498842E3
:101D200001D2012070BD4B492368B0FBF1F15E6820
:101D300026F03F060E435E606368934206D94FF477
:101D4000967359434FF47A73B1FBF3F12368491C3E
:101D50001E6A26F03F06314319626168914210D82D
:101D60004900401EB0FBF1F2521CC2F30B02042AE0
:101D700001D2042022E0B0FBF1F0401CC0F30B00C4
:101D80001CE0A268F2B301EBC10303EB0116431E92
:101D9000B3FBF6F35B1C43F480431B0549D092B3BD
:101DA00001EBC10202EB0111401EB0FBF1F0401C3F
:101DB000C0F30B0040F4804040F400402168CA6941
:101DC0004CF6FF739A431043C861D4E907100143EE
:101DD0002068026822F0C00211430160D4E90301C7
:101DE00001432068826848F2FF339A4311438160BF
:101DF000D4E9050108432168CA6822F0FF021043B4
:101E0000C86001E00EE016E02068016841F00101C1
:101E100001602564202084F83D00256384F83E504D
:101E2000002070BD01EB4106431EB3FBF6F35B1CC3
:101E3000B3E70120C2E701EB4101401EB0FBF1F026
:101E4000401CC0F30B00B7E7A086010080841E0091
:101E500000093D0040420F002DE9FF4F83B00025EF
:101E6000DDE910799A4693460446DDF848800095EE
:101E7000FFF728FF064694F83D0020287CD119235F
:101E8000012285492046009601F0BAFC0028F5D1D0
:101E900094F83C0001286FD0012084F83C002068B1
:101EA0000168C90703D1016841F0010101602068A0
:101EB000016821F400610160222084F83D00402087
:101EC00084F83E0025646762A4F82A90608D20851E
:101ED0007248E062CDE9008653465A46204604998E
:101EE00001F090FB00287DD1208DDFF8B4912027F0
:101EF00068B1012814D00228206801681ED041F47E
:101F0000806101602068416980690090B6E02068C6
:101F1000416981690091016841F400710160ADE09F
:101F20002068016821F48061016072B6206841690F
:101F300081690091016841F400710AE041F4006197
:101F4000016072B62068416981690091016821F4DD
:101F50008061016062B691E0032868D801280CD046
:101F6000022843464FF000024946204600960FD013
:101F700001F046FCB0BB10E08BE032464146204603
:101F800001F0E4FC70BB20680069616A08706CE0D5
:101F900001F036FC30BB72B634E02068016821F4F1
:101FA0008061016072B620680069616A0870606AC9
:101FB000401C6062208D401E2085608D401E608523
:101FC000384846F2A8110068B0FBF1F0C0EBC00041
:101FD00000EB80000090401E009008D0206840690F
:101FE000C04300E029E040070CD50098F3E744F82F
:101FF000305F6773A573206940F02000206162B6EE
:1020000025731AE02068016841F4007101602068BE
:102010000069616A0870606A401C6062218D491E17
:102020002185618D491E618562B621681BE03246BB
:102030004146204601F08AFC18B1012007B0BDE8F6
:10204000F08F20680069616A0870606A401C6062F5
:10205000218D491E2185618D491E618521684A694E
:10206000D24352070AD409690170606A401C606259
:10207000208D401E2085608D401E6085208D0028AB
:102080007FF46AAF84F83D7084F83E5084F83C5089
:10209000D4E70220D2E70000020010000000FFFF9A
:1020A000040001003C0000202DE9FF4F83B09A4658
:1020B000DDE9119793460446DDF84080FFF702FE04
:1020C000054694F83D0020287FD11923012240497C
:1020D0002046009501F094FB002876D194F83C004E
:1020E000012872D0012084F83C0020680168C907EB
:1020F00003D1016841F0010101602068016821F409
:1021000000610160212084F83D00402084F83E00F9
:1021100000262664C4F82480A4F82A90608D2085C7
:102120002C48E062CDE9007553465A462046049992
:1021300001F0E6FA70B930E02A463946204601F04F
:102140003DFC58B1206C042804D12068016841F49A
:1021500000710160012007B0BDE8F08F606A21685E
:1021600000780861606A401C6062218D491E89B256
:102170002185628D521E628522685369DB435B07AD
:102180000BD469B100781061606A401C6062208DD8
:10219000401E2085608D401E6085208D0028CBD19B
:1021A0002A463946204601F0FFFA0028CAD154F8E1
:1021B0003D0B016841F400710160202004F81E0904
:1021C000E67766770020C6E7FFE70220C3E7000056
:1021D000020010000000FFFF10B586B00021009142
:1021E0000191029103910068104988421BD1104C63
:1021F000A06940F00800A061A069694600F00800ED
:1022000004904FF44060009012200190032003904E
:102210000848FFF751FCE06940F48000E061E069A4
:1022200000F48000049006B010BD0000005800408B
:1022300000100240000C014070B5040011D021686C
:102240004CF6CC400860216845F255500860D4E94E
:10225000000141602168A0688860FFF733FD0546F2
:102260000DE0012070BD00BFFFF72CFD401B2728AB
:1022700005D92068C068800701D0032070BD2068A0
:10228000C0688007F0D121684AF6AA2008600020C3
:1022900070BD00684AF6AA21016000207047000066
:1022A0000248816802781144816070473000002044
:1022B000074810B5016841F010010160032000F0EB
:1022C00075F80F2000F006F800F024F8002010BD8B
:1022D0000020024070B50D4D04464FF47A71287805
:1022E000B1FBF0F00A490968B1FBF0F000F052FBD5
:1022F00048B9102C07D200222146501E00F036F8B3
:1023000000206C6070BD012070BD00003000002016
:102310003C0000200C4808B5816941F00101816151
:10232000816901F001010091C16941F08051C161F1
:10233000C06900F0805000900448416821F0E061DD
:1023400041F00071416008BD0010024000000140F2
:10235000002809DB00F01F020121914040098000A4
:1023600000F1E020C0F8001170470000F0B40E4BFF
:102370001B680C46C3F30223C3F10705042D00D9E3
:102380000425191D072901D2002300E0DB1E0126C8
:1023900006FA05F1491E214099409E40761E1640DE
:1023A0003143F0BC02F0C1BE0CED00E0064900F084
:1023B000070208684FF6FF03184040EA0220034A6C
:1023C00010430860704700000CED00E00000FA05C3
:1023D0002DE9F84305460078354CC00754D0E06934
:1023E0000026C00008D4E06940F08050E061E06958
:1023F000012600F0805000902E480168C90512D4D3
:102400000168804641F480710160FFF75BFC07467C
:1024100005E000BFFFF756FCC01B642823D8D8F89E
:102420000000C005F6D5206A10F4407021D0A988BC
:1024300001F4407181421CD0206A1F49012220F41E
:1024400040700A6000220A602062C00711D0FFF7C6
:1024500039FC074641F2883808E000BFFFF732FC3C
:10246000C11B414502D90320BDE8F883206A8007DB
:10247000F4D5206A696820F44070084320621EB1D8
:10248000E06920F08050E0612878800705D5606819
:10249000A96820F44040084360602878C00605D54C
:1024A0006068696920F48000084360600020DBE711
:1024B0000010024000700040400442422DE9F04705
:1024C0000F46050061D0434E306800F00700B84267
:1024D00009D2306820F0070038433060306800F0DF
:1024E0000700B84251D128683B4C810712D54007FC
:1024F00003D5606840F4E06060602878000703D589
:10250000606840F4605060606068A96820F0F00086
:10251000084360602878C00728D06868012810D078
:102520002168022810D0890700292EDA616821F07D
:10253000030101436160FFF7C5FB804641F2883922
:102540000DE021688903EFE78901EDE7FFF7BAFBAA
:10255000A0EB0801494502D90320BDE8F087606877
:10256000696800F00C00B0EB810FEFD1306800F02B
:102570000700B8420BD9306820F0070038433060BC
:10258000306800F00700B84201D00120E5E7287864
:10259000400705D56068E96820F4E06008436060A2
:1025A0002878000706D56068296920F4605040EA61
:1025B000C100606000F038F86168084AC1F3031197
:1025C000515CC8400649086006480068FFF782FE73
:1025D0000020C2E7002002400010024040650008D1
:1025E0003C00002034000020044805490068496888
:1025F000044AC1F30221515CC84070473C000020EE
:102600000010024050650008044805490068496808
:10261000044AC1F3C221515CC84070473C0000200D
:1026200000100240506500080E4A51680E4801F043
:102630000C03042B11D0082B0FD10C48C1F383439A
:10264000C903C05C0AD55168084AC1F34041921ED3
:10265000515C054A5043B0FBF1F0704704494843D0
:10266000704700000010024000127A003065000838
:1026700000093D002DE9F84F040070D02078C04DCE
:10268000C00749D06868C0F38100012807D0686896
:10269000C0F38100022809D16868C00306D5286804
:1026A000800339D560680028E7D035E06068B0F570
:1026B000803F0BD010B1B0F5A02F11D0286820F4C6
:1026C00080302860286820F4802002E0286840F4E8
:1026D00080302860606890B1FFF7F4FA06460AE09F
:1026E000286840F480202860F0E700BFFFF7EAFA8E
:1026F000801B642873D828688003F7D50CE0FFF7A7
:10270000E1FA064605E000BFFFF7DCFA801B64280B
:10271000F0D828688003F7D420789A4E80074FF0CD
:1027200001094FF0000839D5686810F00C0F07D088
:102730006868C0F38100022809D16868C00306D424
:102740002868800714D52069012808D110E0206985
:10275000B0B1C6F80090FFF7B5FA074605E00AE108
:10276000FFF7B0FAC01B0228C4D828688007F7D545
:102770002868616920F0F80040EAC10028600DE097
:10278000C6F80080FFF79EFA074604E0FFF79AFAC2
:10279000C01B022823D828688007F7D420780007B8
:1027A0002CD57948A169D9B1C0F80090FFF78AFA11
:1027B000074604E0FFF786FAC01B02280FD8686AB4
:1027C0008007F7D571484FF4FA510068B0FBF1F07B
:1027D000009000BF0098411E0091FAD20EE080E008
:1027E000C0F80080FFF76EFA074604E0FFF76AFAC8
:1027F000C01B022875D8686A8007F7D42078400784
:1028000060D5E8690027C00008D4E86940F080502E
:10281000E861E869012700F0805000905C48016899
:10282000C90513D40168834641F480710160FFF744
:1028300049FA824606E000BFFFF744FAA0EB0A001F
:1028400064284ED8DBF80000C005F5D5E068012803
:102850000AD008B1052813D0286A20F001002862A8
:10286000286A20F0040002E0286A40F00100286293
:10287000E06841F2883B98B1FFF724FA82460BE00A
:10288000286A40F004002862EEE700BFFFF71AFA5A
:10289000A0EB0A0159455AD8286A8007F6D50CE002
:1028A000FFF710FA824605E0FFF70CFAA0EB0A01E9
:1028B00059454CD8286A8007F6D41FB1E86920F042
:1028C0008050E861E06988B36968C1F38101022939
:1028D00044D00228C6F8608004D0FFF7F3F904461C
:1028E00038E034E0FFF7EEF9074604E0FFF7EAF9D5
:1028F000C01B02282BD828688001F7D4206AB0F5C5
:10290000803F05D16868A16820F400300843686002
:10291000D4E908010843696821F474110843686028
:10292000C6F86090FFF7CEF9044606E025E000BF48
:10293000FFF7C8F9001B022809D828688001F7D5DD
:102940001BE000BFFFF7BEF9001B022802D90320DD
:10295000BDE8F88F28688001F4D40EE00128F7D094
:102960006868226A00F48031914204D1616A00F4FF
:102970007010884201D00120EAE70020E8E700005B
:102980000010024000004242800442423C0000200D
:102990000070004010B5401EB0F1807F01D30120CF
:1029A00010BD4FF0E02460610F21601702F0BDFB05
:1029B0000020A06107202061002010BD70477047F3
:1029C00010B590F83C20012A22D0012280F83C204A
:1029D000CA688C6822F4407222434C6822F48062F8
:1029E00022430C6822F4006222430C6922F48052D4
:1029F00022434C6922F400522243C969002322F485
:102A000080420A4301684A6480F83C30002010BDCF
:102A1000022010BD70B590F83C20012A2CD0012472
:102A200080F83C40022280F83D2003685A689D6887
:102A300022F070060A6832435A60104B02689A42CC
:102A40000ED00F4B9A420BD0B2F1804F08D00D4BF5
:102A50009A4205D00C4B9A4202D00C4B9A4204D1B8
:102A6000496825F080031943916080F83D400021BA
:102A700080F83C10084670BD022070BD002C01405B
:102A8000003401400004004000080040000C0040F9
:102A900010B5040003D094F83D0010B107E0012008
:102AA00010BD002084F83C00204600F01FF80220F2
:102AB00084F83D00211D206801F026FE012084F8E5
:102AC000460084F83E0084F83F0084F8400084F813
:102AD000410084F8420084F8430084F8440084F8FC
:102AE000450084F83D00002010BD000008B5274ACD
:102AF00001682748914207D1816941F400618161F1
:102B0000806900F4006014E0B1F1804F0AD0214ADE
:102B1000914210D1C16941F00201C161C06900F068
:102B2000020006E0C16941F00101C161C06900F025
:102B30000100009008BD184A914207D1C16941F0D7
:102B40000401C161C06900F00400F2E7134A914238
:102B500011D1C16941F01001C161C069002200F0CA
:102B60001000009011463620FFF700FCBDE8084039
:102B70003620FFF7EDBB0A4A9142DBD1816941F46F
:102B800000518161806900F40050D2E7002C0140BF
:102B90000010024000040040000800400010004007
:102BA0000034014090F83D10012901D00120704708
:102BB000022180F83D100168CA6842F00102CA6033
:102BC00000680E4988420ED00D4988420BD0B0F102
:102BD000804F08D00B49884205D00B49884202D06B
:102BE0000A49884204D1816801F00701062903D00F
:102BF000016841F00101016000207047002C014094
:102C0000003401400004004000080040000C004077
:102C100070B5044690F83C000025012817D0012625
:102C200084F83C60022084F83D002068826822F02D
:102C3000770222F47F4282600868502838D00DDC89
:102C400020284FD005DC90B3102811D14AE0022093
:102C500070BD302846D040280AD13BE060282FD0F4
:102C600070280DD0B0F5805F03D0B0F5005F12D0B2
:102C7000012584F83D60002084F83C00284670BDA2
:102C8000CB68D1E90121206801F091FD20688168BD
:102C900041F0770109E0CB68D1E90121206801F01A
:102CA00086FD2068816841F480418160E1E719E098
:102CB000CA684968206801F04FFE5021206806E08C
:102CC000CA684968206801F058FE6021206801F058
:102CD00078FDCEE7CA684968206801F03DFE4021D2
:102CE0002068F4E7226801461046F0E7704770B5A7
:102CF0000446006801694FF00005C943890715D4EF
:102D0000C168C943890711D4E91E016101202077F8
:102D1000206880698007204602D0FFF7E7FF04E0C3
:102D200000F006F9204600F098F92577206801693F
:102D3000C943490717D4C168C943490713D46FF081
:102D400004010161022020772068806910F4407F2F
:102D5000204602D0FFF7CAFF04E000F0E9F8204661
:102D600000F07BF9257720680169C943090716D46B
:102D7000C168C943090712D46FF00801016104203A
:102D800020772068C0698007204602D0FFF7AEFF99
:102D900004E000F0CDF8204600F05FF925772068C8
:102DA0000169C943C90617D4C168C943C90613D408
:102DB0006FF010010161082020772068C06910F4CD
:102DC000407F204602D0FFF791FF04E000F0B0F80A
:102DD000204600F042F9257720680169C943C907F8
:102DE00008D1C168C943C90704D1891E01612046C1
:102DF00000F08EF920680169C943090609D4C16849
:102E0000C943090605D46FF0800101612046FFF730
:102E1000D5FD20680169C943490609D4C168C94381
:102E2000490605D46FF040010161204600F084F9A5
:102E300020680169C94389060BD4C168C943890662
:102E400007D46FF0200101612046BDE87040FFF714
:102E5000B6BD70BD30B585B00021009101910291E1
:102E600003912B4C03682B4902222B48A34209D122
:102E70008B6943F004038B61896901F004010491BB
:102E800041151BE0B3F1804F0FD0244D4024AB42DD
:102E90001CD18B6943F004038B618969CDE9004241
:102EA00001F00401CDE903210BE08B6943F0040339
:102EB0008B61896901F0040104910121CDE90012BF
:102EC00003926946FEF7F8FD05B030BD1448834211
:102ED0000DD1886940F0080088618869CDE9004219
:102EE00000F00800CDE9032069460E48EAE70E48E5
:102EF0008342E9D1886940F0100088618869CDE992
:102F0000004200F01000CDE9032069460748D9E7E8
:102F1000002C014000100240000801400004004065
:102F200000080040000C0140003401400010014046
:102F3000704770B5044690F83C0000260D46012805
:102F40000FD0012084F83C006AB1042A1DD0082A61
:102F50002FD00C2A3FD00126002084F83C003046B8
:102F600070BD022070BD206801F034FC20688169CA
:102F700041F0080181612068816921F004018161CB
:102F8000206881692A69114311E0206801F052FC30
:102F90002068816941F4006181612068816921F4C0
:102FA00080618161206881692A6941EA0221816129
:102FB000D2E7206801F074FC2068C16941F0080183
:102FC000C1612068C16921F00401C1612068C16943
:102FD0002A69114311E0206801F096FC2068C1695C
:102FE00041F40061C1612068C16921F48061C1615F
:102FF0002068C1692A6941EA0221C161ACE710B5C4
:10300000040003D094F83D0010B107E0012010BD8A
:10301000002084F83C00204600F01EF8022084F8CE
:103020003D00211D206801F06FFB012084F846005F
:1030300084F83E0084F83F0084F8400084F84100A2
:1030400084F8420084F8430084F8440084F8450082
:1030500084F83D00002010BD7047704710B504464D
:10306000022249B104290ED0082913D094F8410056
:10307000012816D0012010BD94F83E000128F9D196
:1030800084F83E200FE094F83F000128F2D184F844
:103090003F2008E094F840000128EBD184F840205C
:1030A00001E084F841200122206801F073FB1349FC
:1030B0002068134A884201D0904203D1436C43F404
:1030C00000434364206888420DD090420BD0B0F199
:1030D000804F08D00B49884205D00B49884202D066
:1030E0000A49884204D1816801F00701062903D00A
:1030F000016841F001010160002010BD002C014079
:10310000003401400004004000080040000C004072
:1031100000680649884207D105490888401C088094
:1031200004490888401C08807047000000100040D7
:103130000000002002000020704770477047000028
:10314000F8B5016804460868CA684B6910F00F0FAB
:103150004FF0000559D003F0010602F49077374391
:1031600065D0C10705D0D10503D5616C41F00101DF
:103170006164410705D5D90703D0616C41F00201B4
:103180006164810705D5D90703D0616C41F0040162
:103190006164010707D502F02001314303D0616C5F
:1031A00041F008016164616C00293AD0800604D5C1
:1031B000900602D5204601F088FE20684069616CC7
:1031C000C0F38010090700D460B3204601F056FE1A
:1031D00020684069400621D52068143050E8001F5F
:1031E00021F0400140E80012002AF5D1E06BA8B1BF
:1031F0006D494163E06BFEF72DFA002811D0E06BBA
:10320000416B01B0BDE8F040084783060FD5930637
:103210000DD52046BDE8F84001F057BE2046FFF727
:103220008DFFF8BD2046FFF789FF6564F8BD266B6A
:103230002023012E7CD1C6067AD5D60678D508681B
:103240004868009048694FF00206400640D5E16B9F
:10325000086840680004000CE8D0A28D8242E5D9DD
:10326000E085886920282DD020680C3050E8001FA8
:1032700021F4807140E80012002AF5D12068143052
:1032800050E8001F21F0010140E80012002AF5D1AA
:103290002068143050E8001F21F0400140E800127F
:1032A000002AF5D184F84230256320680C3050E8BC
:1032B000001F21F0100140E80012002AF5D1E06B58
:1032C000FEF7A4F96663A08DE18D401A81B22AE071
:1032D000A08DE18D401A81B2E08D0028A6D0002992
:1032E000A4D022680C3252E8000F20F4907042E81B
:1032F0000007002FF5D12068143050E8002F22F08D
:10330000010240E80027002FF5D184F84230256300
:1033100020680C3050E8002F22F0100240E8002313
:10332000002BF5D166632046FFF707FFF8BDFFE7E6
:1033300005062BD5150629D594F841002128F5D18D
:10334000A068B0F5805F01D12069B0B1206A411C4E
:103350002162216800784860E08C401E0004000C67
:10336000E084E3D12068C16821F08001C160206859
:10337000C16841F04001C160D8E7206A0088C0F30D
:1033800008004860206A801C2062E5E74006CDD531
:103390005006CBD5CA68204622F04002CA6084F8A5
:1033A000413000F016F9C1E76D4E000870B5040019
:1033B00004D094F84100002510B106E0012070BD52
:1033C00084F84050204600F023F8242084F841007F
:1033D0002068C16821F40051C160204601F0D6FD8B
:1033E0002068016921F4904101612068416921F060
:1033F0002A0141612068C16841F40051C1606564DF
:10340000202084F8410084F842006563002070BDEC
:1034100030B585B0002400940194029403942E4D9D
:1034200003682E4802210322AB4227D1C36943F42B
:103430000023C361C36903F400230493836943F049
:10344000100383618069264D00F01000049048024B
:10345000CDE90001039269462846FEF72DFBE814EA
:10346000CDE90004694628460294FEF725FB0022B8
:1034700002213420FEF77AFF342029E0194DAB42B7
:1034800028D1C36943F40033C361C36903F4003333
:103490000493836943F0040383618069124D00F053
:1034A000040004900420CDE90001039269462846F7
:1034B000FEF702FB0820CDE9000469462846029485
:1034C000FEF7FAFA002201212620FEF74FFF262000
:1034D000FEF73EFF05B030BD004C0040001002403A
:1034E00000100140004400400008014090F84230C4
:1034F000202B01D00220704721B11AB100230363B1
:1035000001F0A0BD0120704710B50068074988424E
:103510000AD10748007801F011FF0122044905484B
:10352000FFF7E4FF0028F8D110BD00000044004080
:103530002C000020780800202DE9F843044690F87C
:1035400041001F4616460D46202802D00220BDE845
:10355000F8837DB176B100206064212084F84100B9
:10356000FEF7B0FBA6848046E684A068B0F5805FD5
:1035700002D003E00120EAE7206910B12E460025C1
:103580000EE000260CE08021204601F076FDA0B977
:10359000AEB116F8010B21684860E08C401EE08453
:1035A000E08C43464FF0000200970028EBD14FF02B
:1035B0004001204601F061FD30B10320C7E735F836
:1035C000020BC0F30800E6E7202084F84100002049
:1035D000BDE77047FEE701684A69D24352050FD440
:1035E0006FF480624A61002140F8301F202242734C
:1035F0008173026942F00402026101730120704785
:10360000002070472DE9F84F0446006889460B9D5D
:1036100001689846174641F480610160206801689E
:1036200041F48071016000954FF0011B0022594662
:1036300020460A9B00F0E4F84FF4007A40B120687D
:103640000068C00501D5C4F840A00320BDE8F88F8C
:10365000216809F0FE0008612B46284920460A9A95
:1036600000F016F9F0BB20684169806900902A4695
:1036700020460A9900F0A2F940B1206C04283AD102
:103680002068016841F40071016034E0FEB2B8F1D5
:10369000010F09D02168380A08612A4620460A9994
:1036A00000F08CF90028E8D1206806612A462046FF
:1036B0000A9900F083F90028DFD12068016841F4FD
:1036C0008071016000950022594620460A9B00F057
:1036D00097F80028B3D1216809F0FF0040F00100FD
:1036E000086100E007E02B46044920460A9A00F0F2
:1036F000CFF80028AAD00120A8E7000002000100AE
:103700002DE9F843044600680D46DDE90897016895
:103710009846164641F4807101604B4600224FF0F6
:1037200001112046009700F06BF848B1206800684E
:10373000C00502D54FF4007020640320BDE8F88373
:10374000216805F0FE0008613B464A4615492046BF
:1037500000F09EF888B920684169806900903A4677
:103760004946204600F02AF948B1206C042804D1CB
:103770002068016841F4007101600120DEE7F5B2C4
:10378000B8F1010F09D02168300A08613A4649466C
:10379000204600F013F90028E7D1206805610020D9
:1037A000CCE700000200010070B516460D46044645
:1037B0001EE02046FFF70FFF08B1012070BD681C16
:1037C00016D0FEF77FFA801BA84200D885B9206882
:1037D0004069C04340070BD5002044F8300F20213A
:1037E0006173A073216941F0200121612073E4E736
:1037F00020684069C0434007DBD4002070BD000052
:103800002DE9F047984617460D460446C1F3074692
:10381000DDF820902AE000BFB8F1FF3F26D0FEF788
:1038200051FAA0EB0901414502D8B8F1000F1DD1B2
:103830002068012E16D0806925EA00000004000CE3
:1038400012D00020B84211D1002044F8300F2021BE
:103850006173A073216941F020012161207301206F
:10386000BDE8F0874069E7E70120EBE72068012E1B
:103870000AD0806925EA00000004000C06D0002070
:10388000B842C9D00020EBE74069F3E70120F7E731
:103890002DE9F047984616460D4604464FF00009BC
:1038A0004FF0200AC1F3074723E020684069C04376
:1038B000400515D42068016841F400710160216859
:1038C0006FF480604861C4F8309084F83DA084F8BB
:1038D0003E90216C41F00401216484F83C9021E089
:1038E000701C06D0FEF7EEF9A0EB0800B04203D83A
:1038F00016B1012F1FD021E02068012F15D080695B
:1039000025EA00000004000C18D000BF44F8309FE6
:1039100084F80DA084F80E90216941F02001216106
:1039200084F80C900120BDE8F087406925EA00008A
:103930000004000CEAD12068406901E02068806939
:1039400025EA00000004000CAFD1ECE72DE9F041BE
:10395000002590460E460446202728E04069C043D3
:10396000C0060CD454F8301B6FF01000486144F8C6
:1039700010596777A577206A2062257714E0FEF753
:10398000A1F9A0EB0800B04200D886B920684069D0
:10399000C04340060BD544F8305F6773A5732069B8
:1039A00040F02000206125730120BDE8F0812068EF
:1039B0004169C9434906D1D40020F6E770B51646DF
:1039C0000D4604461EE02046FFF705FE08B1012023
:1039D00070BD681C16D0FEF775F9801BA84200D890
:1039E00085B920684069C04300060BD5002044F823
:1039F000300F20216173A073216941F02001216102
:103A00002073E4E720684069C0430006DBD400204F
:103A100070BD000000EB40020348002100EB820073
:103A200081808160704700005C000020FEB50021AD
:103A3000274800910191254A029102609215826007
:103A400001240473017505254FF460220561C261EC
:103A50004160FDF76DFC08B1FDF7DCF90426072095
:103A60000096CDE9014069461948FDF7B5FB08B15C
:103A7000FDF7D0F90B200090022001906946144810
:103A8000FDF7AAFB08B1FDF7C5F90D200090032052
:103A9000019069460E48FDF79FFB08B1FDF7BAF9A2
:103AA0000E20CDE9000669460948FDF795FB08B1EF
:103AB000FDF7B0F90F20CDE9000569460448FDF790
:103AC0008BFB002801D0FDF7A5F9FEBD00240140C5
:103AD000AC050020094808B5416941F00101416188
:103AE0004069002200F00100009011460B20FEF713
:103AF0003DFCBDE808400B20FEF72ABC0010024048
:103B00002DE9F04786B000243948009401940294CE
:103B10000394816941F010018161816901F0100114
:103B20000491816941F020018161816901F02001E6
:103B30000491816941F004018161816901F004010E
:103B40000491816941F0080181618069DFF8A480F6
:103B500000F00800049000224EF280014046FEF77B
:103B6000ACF8DFF89490002202214846FEF7A5F851
:103B7000DFF888A00022A0215046FEF79EF84FF4FF
:103B8000025001250327CDE90005CDE9024769462A
:103B90004046FDF791FFB8030226CDE90005CDE9C7
:103BA000024669464046FDF787FF03970096CDE938
:103BB000015469464846FDF77FFFA8038DE8510090
:103BC00069465046FDF778FF28028DE851006946A6
:103BD0004846FDF771FFA020CDE90005CDE9024779
:103BE00069465046FDF768FF06B0BDE8F087000063
:103BF000001002400010014000080140000C01408C
:103C00000D4810B50B4901600C49416000214FF48B
:103C100080428160C0E9031241618161C16101623A
:103C2000FEF756F8002803D0BDE81040FDF7F2B8C3
:103C300010BD00000058004020060020A0860100B2
:103C4000094810B5074901600321416040F6C411DD
:103C50008160FEF7F1FA002803D0BDE81040FDF7BF
:103C6000D9B810BD003000407406002010B596B0E1
:103C700000240F9410941194129413941C2108A8FA
:103C80001494FCF7C3FA20216846FCF7BFFA2948D0
:103C9000274901600821C0E9011440F2E731C0E979
:103CA00003148021C0E90541FEF7F2FE08B1FDF7DB
:103CB000B1F84FF480500F900FA91E48FEF7A8FFEF
:103CC00008B1FDF7A7F81B48FFF799F908B1FDF710
:103CD000A1F8139413A917481494FEF79BFE08B19A
:103CE000FDF798F86020CDE908040A940B940C9431
:103CF0000D94042208A90F480E94FFF71AF908B191
:103D0000FDF788F800944FF40050CDE90440029488
:103D100001940394694607480794FEF751FE08B1E1
:103D2000FDF778F80348FFF795F816B010BD0000CE
:103D3000002C01408006002010B58EB000240794AE
:103D4000089409940A940B941C2168460C94FCF77F
:103D50005DFA1E484FF0804101604721C0E901141F
:103D600040F2E731C0E9031480218161FEF790FE43
:103D700008B1FDF74FF84FF48050079007A913489A
:103D8000FEF746FF08B1FDF745F81048FFF737F991
:103D900008B1FDF73FF80B940BA90C480C94FEF703
:103DA00039FE08B1FDF736F86020CDE90004029431
:103DB0000022694605480494FFF7BBF808B1FDF7F7
:103DC00029F80248FFF746F80EB010BDC8060020DB
:103DD00010B58EB000240794089409940A940B94AB
:103DE0001C2168460C94FCF711FA1F481D4901601C
:103DF0003B21C0E9011440F2E731C0E903148021FE
:103E00008161FEF745FE08B1FDF704F84FF48050DC
:103E1000079007A91448FEF7FBFE08B1FCF7FAFF6C
:103E20001148FFF7ECF808B1FCF7F4FF0B940BA96D
:103E30000D480C94FEF7EEFD08B1FCF7EBFF602097
:103E4000CDE9000402940022694607480494FFF774
:103E500070F808B1FCF7DEFF0348FEF7FBFF0EB079
:103E600010BD0000000400401007002010B58EB007
:103E700000240794089409940A940B941C21684622
:103E80000C94FCF7C3F91F481D4901604721C0E9A4
:103E9000011440F6F561C0E9031480218161FEF749
:103EA000F7FD08B1FCF7B6FF4FF48050079007A963
:103EB0001448FEF7ADFE08B1FCF7ACFF1148FFF760
:103EC0009EF808B1FCF7A6FF0B940BA90D480C94C3
:103ED000FEF7A0FD08B1FCF79DFF6020CDE90004CE
:103EE00002940022694607480494FFF722F808B1BB
:103EF000FCF790FF0348FEF7ADFF0EB010BD0000C9
:103F000000080040580700201CB500240F4800940A
:103F10000D49019401604721C0E9011442F20F717B
:103F2000C16080218161FEF7B3FD08B1FCF772FF2B
:103F30000094694605480194FEF76CFD002801D005
:103F4000FCF768FF1CBD000000100040A007002027
:103F500010B596B000240F941094119412941394F9
:103F60001C2108A81494FCF751F920216846FCF79D
:103F70004DF92948274901603B21C0E9011440F26D
:103F8000E731C0E903148021C0E90541FEF780FD57
:103F900008B1FCF73FFF4FF480500F900FA91E4867
:103FA000FEF736FE08B1FCF735FF1B48FFF727F890
:103FB00008B1FCF72FFF139413A917481494FEF7C8
:103FC00029FD08B1FCF726FF6020CDE908040A941A
:103FD0000B940C940D94002208A90F480E94FEF740
:103FE000A8FF08B1FCF716FF00944FF40050CDE98C
:103FF0000440029401940394694607480794FEF72D
:10400000DFFC08B1FCF706FF0348FEF723FF16B0FC
:1040100010BD000000340140E80700200C4810B536
:104020000A4901604FF416514160002181600C2261
:10403000C160C0E904128161C161FFF7B7F90028CE
:1040400003D0BDE81040FCF7E5BE10BD004C0040B9
:10405000300800200C4810B50A4901604FF4E131E6
:104060004160002181600C22C160C0E904128161BD
:10407000C161FFF79BF9002803D0BDE81040FCF7B1
:10408000C9BE10BD0044004078080020FEE7FEE7EE
:10409000FF210171704770472DE9F0473C4D002426
:1040A0002888B0F5FA6F00D32C8028881421B0FB43
:1040B000F1F201FB120189BB364F398888423ED0AC
:1040C0003548364E4FF4004800784FF480490128B7
:1040D0004FF0010206D049463046FDF7EEFD0022C2
:1040E00041460CE041463046FDF7E7FD288814289C
:1040F00009D0282801D03C2811D001224946304659
:10410000FDF7DBFD17E0002249463046FDF7D5FDFF
:1041100040F2EB52472140F6D5300AE00FE0002292
:1041200049463046FDF7C9FD40F27C72472140F612
:10413000F66000F07FFA1A48047028883880194D1C
:10414000287878B1FFF766FC2C700022022116480F
:10415000FDF7B3FD002220211448FDF7AEFD144801
:1041600000684463134D287800280ED0FFF752FCF6
:1041700011482C700470114800684463BDE8F04792
:10418000002219210120FCF773B9BDE8F087000077
:1041900002000020040000201D000020001001404B
:1041A000190000201000002000080140000C014010
:1041B00010070020110000201F000020C80600206A
:1041C0002DE9F047614900240888B0F5FA6F00D363
:1041D0000C8008881422B0FBF2F302FB1302002AC1
:1041E0006FD15B4E8946318888426AD059495A4F0F
:1041F000DFF868810A785A4D4FF4004192B1012AE4
:104200003ED058484FF4804A0078022844D02C70A1
:1042100000224046FDF751FD012251464046FDF780
:104220004CFD33E02C70002245464046FDF745FD2D
:10423000012220213846FDF740FD4FF4FA70FCF7CB
:104240003BFA002220213846FDF737FD002280216D
:104250002846FDF732FD444800688463002211219E
:104260000120FCF705F9002212210120FCF700F9DA
:1042700000220E210120FCF7FBF8FCF725F941E0B4
:10428000C821B0FBF1F201FB120018B1002220217D
:1042900038461CE00122FAE728780122401C2870E9
:1042A0004046FDF70AFD287801280BD80022514628
:1042B0004046FDF702FD40F2EB52472140F6D53073
:1042C00014E022E0022805D8012251464046FDF7BD
:1042D000F4FC17E003280CD8002251464046FDF7B5
:1042E000ECFC40F27C72472140F6F66000F0A2F947
:1042F00008E0012251464046FDF7DFFC287864289B
:1043000000D32C70B9F800003080184E184D30786A
:10431000012828780FD0002816D0FFF77BFB15481E
:104320002C703470006844630022BDE8F047192106
:104330000120FCF79DB8002806D10F4A142100F097
:104340005BF928700122F0E7BDE8F0870200002049
:104350000400002054030020000C01400010014024
:10436000190000201E000020800600201F000020F1
:1043700011000020C8060020A149000810B5FCF774
:104380004BF802460021BDE8104002201047000013
:10439000094A10B511780E290CD2084B19B91C889E
:1043A0002404240C01D0491C1170C9B243F8210027
:1043B000012010BD002010BD06000020D400002008
:1043C0007047000001B50A23012269460148FFF742
:1043D000B3F808BD7808002010B5044603E000BF1C
:1043E000FFF7F0FF641C20780028F9D110BD2DE9FB
:1043F000F04104461D4616460F46EE20FFF7E2FF49
:104400007720FFF7DFFF2046FFF7DCFF3846FFF796
:10441000D9FF3046FFF7D6FF2846FFF7D3FFFF202E
:10442000FFF7D0FFFC20FFF7CDFFFF20FFF7CAFF0B
:10443000BDE8F041FF20FFF7C5BF70B50646144642
:104440000D46EE20FFF7BEFFB120FFF7BBFF19209E
:10445000FFF7B8FF300AFFF7B5FFF0B2FFF7B2FF82
:10446000280AFFF7AFFFE8B2FFF7ACFF200AFFF71B
:10447000A9FFE0B2FFF7A6FFFF20FFF7A3FFFC2094
:10448000FFF7A0FFFF20FFF79DFFBDE87040FF2072
:10449000FFF798BF2DE9FF4106461F460D46002451
:1044A000EE20DDF82880FFF78DFFB120FFF78AFFAF
:1044B0000720FFF787FF300AFFF784FFF0B2FFF70E
:1044C00081FF280AFFF77EFFE8B2FFF77BFF02209B
:1044D000FFF778FF07F00F005FEA080100D08021A6
:1044E0000843FFF76FFF02ADC4F10300285CFFF73C
:1044F00069FF641CE4B2042CF6D3FF20FFF762FFCF
:10450000FC20FFF75FFFFF20FFF75CFF04B0FF20F8
:10451000BDE8F041FFF756BF2DE9F04106461F46C2
:1045200014460D46EE20DDF81880FFF74BFFB12052
:10453000FFF748FF0720FFF745FF300AFFF742FF6C
:10454000F0B2FFF73FFF280AFFF73CFFE8B2FFF7A2
:1045500039FF0FB1012000E00020FFF733FF08F022
:104560000F0040F08000FFF72DFF200EFFF72AFF1D
:10457000C4F30740FFF726FFC4F30720FFF722FF2D
:10458000E0B2FFF71FFFFF20FFF71CFFFC20FFF743
:1045900019FFFF20FFF716FFBDE8F041FF20FFF7EE
:1045A00011BF70B5054616460C46EE20FFF70AFF10
:1045B000B120FFF707FF1020FFF704FF280AFFF7DD
:1045C00001FFE8B2FFF7FEFE200AFFF7FBFEE0B2B4
:1045D000FFF7F8FE3046FFF7FFFEFF20FFF7F2FE81
:1045E000FC20FFF7EFFEFF20FFF7ECFEBDE8704078
:1045F000FF20FFF7E7BE0000F0B505460C4B00209A
:1046000000EB400403EB8404A4882CB1401CC0B22E
:104610000A28F5D3FF20F0BD00EB400603EB86042B
:104620000027678003F82650A180A260F0BD00003B
:104630005C00002030B50E490B681C6A41F2111570
:104640002C4207D11C6AAD102C4203D11C6824F007
:1046500001041C600B68D862C860086842630A687D
:10466000002050620868016841F00101016030BD1E
:1046700058070020FDF714BE30B595B028216846D4
:10468000FBF7C4FD14210AA8FBF7C0FD18210FA8F1
:10469000FBF7BCFD0920012100904FF4803000257C
:1046A00004910691CDE901050224CDE907404FF4BC
:1046B000E01009906846FDF7DDFF08B172B6FEE72D
:1046C0000AA90F2081E831004FF48060CDE90D0583
:1046D00002210AA8FDF7F2FE08B172B6FEE74FF418
:1046E000004011900F940FA8FDF772FE002801D032
:1046F00072B6FEE715B030BD704700000148FEF706
:10470000F6BA0000A0070020F0B502681C4B1D4D52
:104710001D4E1E4F1E4C4FF0804C984209D0A042B7
:1047200007D0604505D0A84203D0B04201D0B842BE
:1047300004D122F0700E4A6842EA0E02984209D073
:10474000A04207D0604505D0A84203D0B04201D0B6
:10475000B84203D122F44075CA682A434D6922F059
:1047600080022A4302608A68C2620A6882629842B2
:1047700001D0A04201D10969016301214161F0BD6D
:10478000002C01400004004000080040000C0040E4
:104790000034014010B501F01F030121046A994063
:1047A0008C430462016A9A401143016210BD10B546
:1047B000846842EA032224F47F440A43224382604D
:1047C00010BD826822F070020A4342F00701816046
:1047D00070470000F0B5036A026A22F0010202622B
:1047E00042688469124E24F073050C682C4323F050
:1047F00002058B682B430D4DA84201D0B04205D174
:1048000023F00807CB683B4323F00403A84201D000
:10481000B04205D14D6922F4407215438A692A439A
:1048200042608461496841630362F0BD002C01402D
:1048300000340140F0B5026A036A23F010030362FA
:10484000436884690D6824F4E64444EA05248D68CD
:1048500022F0200242EA05120F4D104EA84201D06C
:10486000B04206D1CF6822F0800242EA071222F05D
:104870004002A84201D0B04207D14D6923F4406301
:1048800043EA85038D6943EA85034360846149688F
:1048900081630262F0BD0000002C01400034014041
:1048A000F0B5026A036A23F4807303624368C46943
:1048B00022F4007224F073050C68124E2C438D68AC
:1048C00042EA05220E4DA84201D0B04206D1CF687F
:1048D00022F4006242EA072222F48062A84201D058
:1048E000B04207D14D6923F4405343EA05138D6963
:1048F00043EA05134360C4614968C1630262F0BDC5
:10490000002C01400034014030B5046A026A22F4F0
:10491000805202624268C3690D6823F4E64343EAA9
:1049200005238D6824F4005444EA0534084DA84258
:1049300002D0084DA84204D14D6922F4804242EAD7
:1049400085124260C36149680164046230BD0000A1
:10495000002C01400034014010B5036A046A24F0C1
:1049600001040462846924F0F00444EA021423F090
:104970000A020A438461026210BD10B5036A046A28
:1049800024F010040462846923F0A00324F470442A
:1049900044EA023243EA01118261016210BD000063
:1049A0002DE9F0473C483D4C3D49006901F00EFCC3
:1049B000064620613B484FF00008417804EB810235
:1049C000491C5769142903D3414680F8018000E04F
:1049D0004170C8B204EB8005606E696901F0C2FCE9
:1049E00060663146A06E01F0BDFC6861626E0146F2
:1049F000104601F035FA60666D690646284601F0FA
:104A000003FA294A294B00F0E1FF00F051FD8146ED
:104A1000304601F0F9F9264A264B00F0D7FF00F0A6
:104A200047FD06463946284601F09CFC012101F06D
:104A300040FD054620482149864201DD064602E048
:104A40008E4200D90E463146484601F009FA294601
:104A500001F006FA1A49E060884202D819498842F2
:104A600000DBE160D4E9020101F0FAF91649A06027
:104A7000884201DDA16004E010F1FF4F01D3C4F8CA
:104A80000880A06801F022FB104980B260800968AC
:104A90004863BDE8F0870000140400207003002084
:104AA0000000204142000020B81E85EB51B89E3F17
:104AB000FA7E6ABC7493683F00004842000048C216
:104AC0000000F0C10000F04100C07944C806002099
:104AD0000948818841B1491E89B28180052901D3E5
:104AE000FBF722BD022902D232218180704703499F
:104AF0000020096848637047680400201007002000
:104B000010B5FCF705FAFCF787F9FCF7D9F9BDE811
:104B10001040FCF727BA00002DE9F84F3E48FDF79A
:104B2000B8FBDFF8F880B8F8040001F007FB3C4957
:104B3000C8F81000096901F015FC10F1FF4F00D30F
:104B40000020384901F000FA01F0C0FAC7B288F835
:104B50000270B8F8140040F6FC010025DFF8C8A088
:104B6000324E334C4FF001094FF4C87B88420FD9C5
:104B700084F800909AF8000010B1A4F802B000E0A8
:104B800065802C486188006841634FF4167037E0F7
:104B900098F80100874237D90A281FD300F0C6FED3
:104BA0000022254B00F012FF80463846009100F0AD
:104BB000BDFE4246009B01F007F825D284F8009024
:104BC0009AF8000010B1A4F802B000E0658019481E
:104BD0006188006841634FF4FA7011E0401D87421C
:104BE00012D984F800909AF8000010B1A4F802B02D
:104BF00000E065800F486188006841634FF4E17010
:104C000031684863BDE8F88F20780128FAD1257013
:104C100030684563F6E7000074060020F8030020C2
:104C2000DC0300200000204110000020E8070020E5
:104C300068040020100700200000F83F2DE9F84329
:104C40005C4A5D484FF4005113784FF0010900268B
:104C500013B11670012202E082F800900022FDF7E5
:104C60002CF8564DDFF858812F69EF60474500D387
:104C7000EE60544CA08801F061FA3946206101F0E1
:104C800071FB404500D300204F4901F05DF901F070
:104C90001DFAC2B2A2704FF002080121002308469B
:104CA000CDF80080FFF738FCCDF8009001234F4687
:104CB00002211846EA68FFF7EDFB6078A178C21C74
:104CC000424C91420FD9207802282CD00122092190
:104CD0001046FBF7CDFB00220A210120FBF7C8FBA1
:104CE00084F800801FE0C01E814220780DDA012880
:104CF00019D001220A211046FBF7BAFB0022092134
:104D00000120FBF7B5FB27700DE0022802D0012837
:104D100003D007E00022092101E000220A2101203E
:104D2000FBF7A6FB2670E86801F06EF8284A294BCD
:104D300000F04CFE00F0BCFB2749284C08600146FF
:104D4000206801F08DF8264D264920602C680C6003
:104D500001F0BCF902462860844206D0032000908E
:104D600000230B210120FFF7D7FB1F48017851B129
:104D7000012908D0022906D106704FF6FF720321DF
:104D80000120FFF75AFB4FF480711848FCF790FFA1
:104D9000174A1178884208D1012909D10122BDE8BA
:104DA000F84318210120FBF763BB10700022F6E7DF
:104DB000BDE8F8831A00002000100140DC03002049
:104DC00000008080F8030020000020411E00002029
:104DD000462575029A086B3F280000200C00002031
:104DE00024000020200000201C00002000080140BA
:104DF0001D0000202DE9F0411648174900880A8857
:104E0000831A9EB2904223D0144D08800027A988AF
:104E100049B16888304480B26880884203D36F808B
:104E2000A96800208847012404EB440005EB8000BA
:104E3000818849B14288324492B242808A4203D387
:104E40004780816820468847641CE4B20A2CEBD373
:104E5000BDE8F08100000020400000205C00002040
:104E60000148FEF76DB900003008002010B5406A17
:104E70000021C185C184FEF761F910BD01680C31C4
:104E800051E8002F22F4907241E80023002BF5D165
:104E90000168143151E8002F22F0010241E800239B
:104EA000002BF5D1016B012909D101680C3151E8C2
:104EB000002F22F0100241E80023002BF5D1202121
:104EC00080F8421000210163704708B590F8421045
:104ED000222901D0022008BD82684FF480539A42F3
:104EE00001D1016921B1816A9A421BD04AB10AE01D
:104EF0000268816A5268C2F308020A80816A891CCA
:104F000008E0026972B10268526802F07F020A701A
:104F1000816A491C8162C18D491E0904090CC18541
:104F200003D01BE002685268F1E70168CA6822F00A
:104F30002002CA600168CA6822F48072CA600168EF
:104F40004A6922F001024A61202180F842100021C2
:104F50004163026B012A03D0FEF7D6FA002008BD98
:104F6000016301680C3151E8002F22F0100241E882
:104F70000023002BF5D101680A68D20602D50A6821
:104F800049680091818DFEF7D8F8E7E770B50446CF
:104F900000680169E26821F440511143016121690F
:104FA000A0680843616908432168CA6841F20C633C
:104FB0009A430243CA6020684169A26921F44071A2
:104FC000114341611E492068884202D1FDF71CFB54
:104FD00001E0FDF709FB00EBC00101EB0012606886
:104FE00064218000B2FBF0F3B3FBF1F36FF018061D
:104FF0007343B2FBF0F5B2FBF0F605EB8305322309
:1050000003EB0515B5FBF1F5B6FBF1F605F0F00580
:1050100005EB0615B2FBF0F6B2FBF0F0B0FBF1F0D9
:105020006FF01802504306EB800003EB0010B0FB5A
:10503000F1F0216800F00F002844886070BD000086
:105040000038014081628285C285002141642221AD
:1050500080F84210016921B10168CA6842F4807287
:10506000CA6001684A6942F001024A610068C16889
:1050700041F02001C160002070472DE9F0419846C1
:1050800017460E460446069D27E0681C25D02DB124
:10509000FCF718FEA0EB0800A8421ED920680C30CF
:1050A00050E8001F21F4D07140E80012002AF5D129
:1050B0002068143050E8001F21F0010140E8001280
:1050C000002AF5D1202084F8410084F84200002015
:1050D00084F840000320BDE8F0812068006836EACB
:1050E000000004D00020B842CFD00020F3E7012018
:1050F000F9E700000148FEF723B800007808002017
:10510000FEE7012803D0022804D1FEF7C5BF0846F8
:10511000FBF7E6BA7047012803D0022804D1FFF755
:105120004FB80846FBF7F6BB70470907090E002881
:1051300004DB00F1E02080F80014704700F00F005D
:1051400000F1E02080F8141D70470000FDF7B0F872
:10515000FFF792FAFEF7D4FCFEF7BCFCFEF766FC04
:10516000FEF76EFDFEF7E8FDFEF774FFFEF748FD63
:10517000FEF72EFEFEF7ECFEFEF750FFFEF776FD83
:10518000FEF7C2FEFEF772FE00F0E8F8FBF704FD42
:1051900001222F492F48FEF7A9F901222E492F4855
:1051A000FEF7A4F928222E492E48FCF7A9F904217C
:1051B0002D48FDF753FF00212C48FDF74FFF00213C
:1051C0002B48FDF74BFF00212A48FDF747FF002140
:1051D0002948FDF743FF2948FDF7E4FC284A32211E
:1051E0000020FFF709FA274C274AC8212070002029
:1051F000FFF702FA6070254A0A210020FFF7FCF948
:105200002349A0700020C88288618882087060608D
:105210001C31204888664FF49660FBF74DFA1EA2B9
:1052200002210020FFF7BDF91EA203210020FFF795
:10523000B8F94FF47A70FBF73FFA00F09FF800BF1F
:10524000FBF7F6F8FFF7D6FDFFF798F8F8E7000050
:105250002C000020780800202D00002030080020BD
:1052600050050020AC05002080060020C806002064
:105270001007002058070020E8070020A0070020A2
:10528000194B0008080000203D4C0008014B0008A5
:10529000540300200000B9434553303331313036D8
:1052A0000000000056312E37000000002DE9F043C9
:1052B000814600252A461D4B1D4F1E481BE06645B2
:1052C00006D01C4A121DB25C761CC6F3080444804A
:1052D0001C880CB9EE2A0ED18C4204D209F80420A5
:1052E0001C88641C1C803C6842EA042404F5403697
:1052F0003C60761C14D0B0F800C04688ACEB0604C5
:1053000004F500744FEAE47804EBD8586FF308080A
:10531000A4EB08042404240CD1D10020BDE8F083C0
:10532000188805493D601D800D70F7E712000020C8
:10533000140000201001002018000020064910B5BC
:105340000B884C885A1CC2F30802944202D00C1DF0
:1053500018550A8010BD00001001002004480021EB
:1053600041800180034801600348018070470000CC
:105370001001002014000020120000202DE9F84345
:1053800024480079002843D12248FFF701F810B1E2
:105390002048FEF77DFE204D204E0024EC60B470C6
:1053A0000D2070701E48A8601E233222FF21204667
:1053B000FFF71DF8032000901A4800230B21026814
:1053C0000120FFF7A9F8022700970121B2780023F6
:1053D0000846FFF7A1F84FF00108CDF800804346DA
:1053E00002214046EA68FFF755F8009772780023DB
:1053F00003210120FFF790F8CDF80080012304215C
:105400001846AA68FFF746F8074804700748047072
:10541000BDE8F88344000020DC030020F8030020EE
:105420000000A041240000201E000020680400208D
:10543000154810B50079002824D11348FEF7A8FFBD
:1054400010B11148FEF724FE012202210F48FCF79B
:1054500034FC0F4900200F4A08700A21FFF7CCF8EE
:105460000D490E4C08703220A0800D480D4980680F
:1054700000F0ACFE0C4900F0F3FC0C49A060608821
:105480000968486310BD000050000020000801407A
:105490001B000020D14A00081000002068040020F2
:1054A000DC0300200000A0400000E14310070020C2
:1054B00021F00042A2F16052B2F5801F01F00043DA
:1054C00028BFD2F17F6C0BD95FEA001C43EAC2020D
:1054D00042EB507018BF704728BF20F001007047A2
:1054E000B2F5801FBCBF184670474FEA410C1CF54F
:1054F000001F02D2084600F030BF70B500F010FB6C
:1055000000000089FFF7F6BF4FF00040A0F58000D3
:105510007047000010B591EA030F48BF83F00043C5
:1055200000F19083841A71EB030C05D2121943EB3E
:105530000C03001B61EB0C01DFF824E14FEA11546E
:10554000A4EB135C1EEA430F18BF9EEA445F73D0BE
:1055500023EA0E03DCF1200E21EA045143F4801308
:1055600032D322FA0CFE10EB0E0023FA0CFE41EBB4
:105570000E01CCF1200E03FA0EFE10EB0E0051F1DD
:105580000001B1F5801FCCF1200E32D201EB0451A5
:1055900012FA0EF2BDE8104058BF7047401C38BFE9
:1055A0005FEA420218BF7047002814BF20F00100D4
:1055B00041F100014FEA410313F5001F38BF704766
:1055C000A1F1C04100F0FABA012A43EB0302ACF1A9
:1055D000200CDCF11F0E32BF4FF0000E23FA0CF34B
:1055E00010EB030041EB0451B4EB115FD0D0A1EB01
:1055F000045101F5801149085FEA300001EB0451C4
:105600000ED350F1000038BF12FA0EFE08D1BDE8EB
:105610001040C9E7401C38BF5FEA4202CAD1C3E765
:10562000BDE810404FEA410313F5001F38BF704733
:10563000A1F1C04100F0C2BA9EEA445F08D011EA6D
:105640005E0FBDE8104004BF01F00041002070472C
:10565000BDE8104070B500F063FA00BF64FBBE3EC9
:105660000000E0FF491058BFC1F140415B1058BF36
:10567000C3F140438B42EFF3008070472DE9C041F6
:1056800030B4DFF8A0C23CEA111418BF3CEA13148E
:1056900000F0EC8081EA03051CEA111444EAD57499
:1056A00018BF1CEA131500F0C780A4EB05044FF0E7
:1056B000004545EAC12145EAC32341EA505143EA86
:1056C000525304F17F74994204F500344FEAC0202C
:1056D0004FEAC22208BF904200F09C804FEA136557
:1056E0000FF24016765D4FEA134506FB05F7C7F14A
:1056F000807706FB07F74FEAD737A7FB03687642A8
:10570000C8F58038A7FB06CE38BFA8F1010807FB13
:1057100008E64FF0000EA6FB028CE6FB03CEDCF1A0
:10572000000CCEF1004E38BFAEF1010EA6FB0C58B6
:105730004FF000074FF00005E6FB0E87A1FB08C6FF
:10574000A0FB07CE16EB0E0645F10005E1FB076551
:1057500015F1E04E7EBFA4F580345FEA46066D4148
:1057600016F1800745F100054FEA17274FEA066654
:1057700047EA0567A6F1DE46B6F1805F4FEA1525D8
:105780001FD9384624F0010C05EBC471BCF1FE6F43
:1057900001EB0C1102D8F0BCBDE8008124425CBFD3
:1057A00001F5801E9EEAC47F02D4F0BCBDE80081F2
:1057B000244238D4F0BCA1F1C041BDE8004100F062
:1057C000FDB94FEAD22242EA43524FEAD323A7FB64
:1057D00002864FEAD02040EA415007FB03661EEAEA
:1057E0000E0F4FEAD12105FB026658BFA6EB00560B
:1057F000B6EB00564FEA520E4EEAC37E18EB0E0E81
:1058000056EB530EBDD518EB02085E417F1C55F1D7
:105810000005B6E74FF480154FF000074FF0000683
:105820004FF00008ADE7F0BC4FF0000001F1C041BF
:1058300001F00041BDE8008111EA0C1F0CEA1315CC
:1058400000D00CE013EA0C1F00F025804FF00000A0
:10585000F0BC81EA030101F00041BDE80081F0BC29
:10586000BDE8004181EA030100F0A8B9F0BCBDE841
:10587000004170B500F054F9097EFC3E00F007B815
:1058800081EA03014FF0000001F00041704781EA16
:10589000030100F093B9F0BCBDE800414FF00000F7
:1058A00021497047FFFDFBF9F7F5F4F2F0EEEDEB5F
:1058B000E9E8E6E4E3E1E0DEDDDBDAD8D7D5D4D30E
:1058C000D1D0CFCDCCCBCAC8C7C6C5C4C2C1C0BF5A
:1058D000BEBDBCBBBAB9B8B7B6B5B4B3B2B1B0AF60
:1058E000AEADACABAAA9A8A8A7A6A5A4A3A3A2A144
:1058F000A09F9F9E9D9C9C9B9A99999897979695FF
:1059000095949393929191908F8F8E8E8D8C8C8B9A
:105910008B8A898988888787868585848483838222
:10592000828181800000FF070000F87FB0FA80F3D9
:1059300010FA03F10AD0C3F11D0303F580634FEAA7
:1059400041504FEA035202EBD12170474FF0000063
:105950007047000051EA030C17D41CF5801F58BF94
:10596000BCF5801F00F10680994218BF704708BF40
:105970009042704707D711F5801F58BF13F5801F5D
:1059800019D499427047894270471CF5801F08D589
:10599000BCF5801FF7D58B4218BF704708BF824205
:1059A00070474FF4001C1CEB410F38BF1CEB430F3A
:1059B00001D28B42704770B500F0B2F892244900D2
:1059C0004FF000514FF08053FFF74CBEDFF848C155
:1059D00070B51CEA111E1EBF1CEA13159EEA0C0FBF
:1059E00095EA0C0F00F06F8081EA030423EA4C1360
:1059F0004EEAD47E21EA4C1141F4801143F4801325
:105A0000AE44A1FB024CA0FB0365AEF17F7E3619CC
:105A100055EB0C05A1FB034C4CF10003A0FB021C51
:105A200016EB0C06654153F10003094218BF46F01E
:105A3000010613F4007F0BD14FEA03314FEA053022
:105A4000340341EA155140EA16506FF003020AE0B0
:105A50004FEAC3214FEAC520F40241EA555140EA1A
:105A600056506FF0020202EB2E4201EB025585EA1E
:105A7000CE710AD05FEA440C18BF24F0004450F104
:105A8000000041F1000120EAD47040F2FE7C624542
:105A900000D270BDA84214BF4FF080444FF0404484
:105AA000002E08BF0024BEF1806FA8BFA1F1C04145
:105AB000BDE8704080F282804FF0000001F1C041EB
:105AC00001F0004170479EEA0C0F0CEA131518BF55
:105AD00095EA0C0F06D04FF0000081EA030E0EF09D
